:100000000C949E060C94D6060C94D6060C94202FC5
:100010000C94D6060C94D6060C94D6060C94D606F0
:100020000C94D6060C94D6060C945C170C947B1B8F
:100030000C943E270C94D6060C94D6060C94D60647
:100040000C94D6060C94D6060C94D6060C94D606C0
:100050000C94D6060C9435180C94D6060C94D6063F
:100060000C94D6060C94D6060C94D6060C94D606A0
:100070000C94D6060C94D6060C94D6060C94D60690
:100080000C94D6060C94D6060C94D6060C94D60680
:100090000C94D6060C94D6060C94D6060C94D60670
:1000A0000C94D6060C94D6060C94D6062B0014009D
:1000B0001A00080015001700E100040016000700F0
:1000C00009000A00E0001D001B00060019000500E1
:1000D000000000000000E30021522C002A00130061
:1000E00012000C0018001C00340033000F000E003A
:1000F0000D000B00290038003700360010001100F9
:10010000000000000000E2002252280029001E002A
:100110001F00200021002200E50050005100520085
:100120004F004B00E4007A007C007D007E004E0012
:10013000000000000000E30001002C002A0027005E
:1001400026002500240023003500310030002F0058
:100150002E002D00210A220A46004D004A004C00C4
:10016000000000000000E600235228003A003B0097
:100170003C003D003E003F0029005000510052006D
:100180004F0000003900620059005A005B005C001B
:10019000000000000000E30023522C004500440052
:1001A00043004200410040002A000000000000001F
:1001B000000000005300610060005F005E005D0011
:1001C000000000000000E600010028002078000088
:1001D000027805780678007C2178237825782778BE
:1001E0002978007822782478267828782A78017867
:1001F000000000000000E30001002C0000000000EF
:1002000000000000A800AE00A70004780000BD00B8
:10021000A900AB00A60003780000BE00AA00AC0055
:10022000000000000000E6000100280000DA028162
:10023000FFD9F1DB20A4A62EAF00A0C000A1C8000A
:10024000AED580A81FD300408D1420001E0F0500DE
:10025000047F3F1F643214643214783C1E1E140A5B
:100260000541646A757374005261697365004C6F6F
:100270007765720044656661756C74004C617965E0
:10028000723A20003A002C206B0078000000000039
:1002900000FEFFFFFFFFFFFFFFFFFFFFFFFFFFFF6E
:1002A000FFFFFFFFFFFFFFFFFFFFFFFFFFFFFFFF5E
:1002B000FFFFFFFFFFFFFFFF0F0F0F0F0FFFFFFFFE
:1002C000FFFFFFFFFFFFFFFFFFFFFFFFFFFE00003D
:1002D000000000000000000000000000000000001E
:1002E000000000000000000000000000000000000E
:1002F00000000000000000000000000000000000FE
:1003000000000000000000000000000000000000ED
:1003100000FFFFFFFF8383838383FFFF8383838348
:10032000FFFF8383838383FFFF83838383FFFF83B5
:1003300083838383FFFFFFFF8282828282FFFF83AA
:10034000838383FFFF8383838383FFFFFFFF00009B
:100350000000000000000000F8FCFCFC9C9CFCFC81
:10036000F8F870000000000030787C3C9CFCFCF841
:10037000F00000000000C0F0F8F83C3C9CBCFCB869
:10038000B8A0000000000000000000000000000015
:1003900000FFFFFFFF4141414141FFFFFFFFFFFF22
:1003A000FFFF4141414141FFFFFFFFFFFFFFFF41D1
:1003B00041414141FFFFFFFF4141414141FFFF7F7B
:1003C0007F7F7FFFFF4141414141FFFFFFFF000071
:1003D00000000000000000003F3F3F3F03070F3FC9
:1003E0003F3E382000000000383C3E3F3F3F3B3955
:1003F000380000000000070F1F3F3C383B3B3F1F09
:100400001F0F0000000000000000000000000000BE
:10041000007FFFFFFFF0F0F0F0F0FFFFFFFFFFFFB6
:10042000FFFFF0F0F0F0F0FFFFFFFFFFFFFFFFF036
:10043000F0F0F0F0FFFFFFFFF0F0F0F0F0FFFFF062
:10044000F0F0F0FFFFF0F0F0F0F0FFFFFF7F0000B2
:10045000000000000000000000000000000000009C
:10046000000000000000000000000000000000008C
:10047000000000000000000000000000000000007C
:100480000000000000000000000000000001010169
:100490000101010101010202020202020202020341
:1004A0000303030303030304040404040404050511
:1004B00005050506060606060707070707080808D4
:1004C00008090909090A0A0A0B0B0B0C0C0C0D0D83
:1004D0000D0E0E0E0F0F0F1010111111121213131B
:1004E0001414151516161717181819191A1A1B1B94
:1004F0001C1D1D1E1E1F20202122222324242526F0
:1005000026272829292A2B2C2D2D2E2F3031323227
:10051000333435363738393A3B3C3D3E3F40414233
:10052000434445464748494A4C4D4E4F5051535419
:10053000555658595A5B5D5E5F61626465666869CD
:100540006B6C6D6F7072737577787A7B7D7E80824D
:10055000838587888A8C8E8F91939596989A9C9E96
:10056000A0A2A3A5A7A9ABADAFB1B3B5B7BABCBEA6
:10057000C0C2C4C6C9CBCDCFD1D4D6D8DBDDDFE273
:10058000E4E7E9EBEEF0F3F5F8FAFDFFFFAA7F559B
:10059000402223252628292A2C2D2F303233353688
:1005A000383A3B3D3E4042434547494A4C4E505104
:1005B000535557595A5C5E6062646668696B6D6F2B
:1005C00071737577797B7D7F81838587898A8C8E2E
:1005D00090929496989A9C9E9FA1A3A5A7A8AAAC36
:1005E000AEAFB1B3B4B6B8B9BBBCBEBFC1C2C3C570
:1005F000C6C7C9CACBCCCDCED0D1D2D2D3D4D5D612
:10060000D7D7D8D9D9DADADBDBDBDCDCDCDCDCDD44
:10061000DDDDDDDCDCDCDCDCDBDBDBDADAD9D9D828
:10062000D7D7D6D5D4D3D2D2D1D0CECDCCCBCAC9C0
:10063000C7C6C5C3C2C1BFBEBCBBB9B8B6B4B3B1EF
:10064000AFAEACAAA8A7A5A3A19F9E9C9A9896948A
:1006500092908E8C8A89878583817F7D7B7977755F
:1006600073716F6D6B6968666462605E5C5A59573E
:10067000555351504E4C4A4947454342403E3D3BFD
:100680003A3836353332302F2D2C2A292826252387
:100690002200AF00AE05010902A10185020901A1F6
:1006A0000005091901290815002501950875018122
:1006B000020501093009311581257F9502750881F0
:1006C0000609381581257F950175088106050C0AF4
:1006D00038021581257F950175088106C0C0050186
:1006E0000980A101850319012AB700150126B70069
:1006F000950175108100C0050C0901A1018504193F
:10070000012AA002150126A002950175108100C0E2
:1007100005010906A1018506050719E029E715006D
:1007200025019508750181020507190029EF1500BB
:10073000250195F075018102050819012905950526
:1007400075019102950175039101C005010906A18A
:1007500001050719E029E7150025019508750181B4
:10076000029501750881010507190029FF1500266A
:10077000FF009506750881000508190129059505F2
:1007800075019102950175039101C009023B0002B8
:100790000100A0FA09040000010301010009211170
:1007A000010001224000070581030800010904013E
:1007B00000010300000009211101000122B6000719
:1007C00005820320000112010002000000085346C8
:1007D00001000100010200010C0343006F007200E0
:1007E0006E0065000000100366006F006F0073006C
:1007F000740061006E0000000403090400000000A2
:1008000000003E5B4F5B3E003E6B4F6B3E001C3E6C
:100810007C3E1C00183C7E3C18001C577D571C0079
:100820001C5E7F5E1C0000183C180000FFE7C3E759
:10083000FF00001824180000FFE7DBE7FF00304846
:100840003A060E00262979292600407F0505070073
:10085000407F05253F005A3CE73C5A007F3E1C1C68
:100860000800081C1C3E7F0014227F2214005F5FDA
:10087000005F5F0006097F017F00006689956A00BE
:1008800060606060600094A2FFA2940008047E048F
:10089000080010207E20100008082A1C0800081CF0
:1008A0002A0808001E10101010000C1E0C1E0C0050
:1008B00030383E383000060E3E0E060000000000C4
:1008C000000000005F000000000700070000147F28
:1008D000147F1400242A7F2A120023130864620064
:1008E000364956205000000807030000001C224132
:1008F00000000041221C00002A1C7F1C2A0008085E
:100900003E08080000807030000008080808080051
:100910000000606000002010080402003E514945BC
:100920003E0000427F400000724949494600214193
:10093000494D33001814127F1000274545453900F2
:100940003C4A4949310041211109070036494949CA
:100950003600464949291E000000140000000040EE
:100960003400000000081422410014141414140070
:100970000041221408000201590906003E415D5958
:100980004E007C1211127C007F49494936003E41DD
:10099000414122007F4141413E007F494949410098
:1009A0007F09090901003E41415173007F08080891
:1009B0007F0000417F4100002040413F01007F084F
:1009C000142241007F40404040007F021C027F0013
:1009D0007F0408107F003E4141413E007F09090924
:1009E00006003E4151215E007F0919294600264933
:1009F0004949320003017F0103003F4040403F006E
:100A00001F2040201F003F4038403F00631408145F
:100A100063000304780403006159494D4300007FDB
:100A200041414100020408102000004141417F0083
:100A30000402010204004040404040000003070857
:100A400000002054547840007F2844443800384443
:100A500044442800384444287F0038545454180033
:100A600000087E0902001824241C78007F08040472
:100A7000780000447D4000002040403D00007F1091
:100A80002844000000417F4000007C047804780086
:100A90007C08040478003844444438007C1824243A
:100AA0001800182424187C007C080404080048540A
:100AB0005454240004043F4424003C4040207C0063
:100AC0001C2040201C003C4030403C0044281028A2
:100AD00044004C9090907C004464544C44000008C6
:100AE0003641000000007700000000413608000099
:100AF0000201020402003C2623263C000000000004
:100B0000000000000000000000000000C0E0F0F85D
:100B1000F81800C0F0FCFEFFFFFFFFFFFFFF7E00A4
:100B2000000000000000000080C0E0E0E0E0E0E045
:100B3000E0E0C0800000000080C0E0E0E0E0E0E035
:100B4000E0E0C080000000E0E0C0C0E0E0E0E000E5
:100B500000E0E0C0C0E0E0E0E0E0C08000000000B5
:100B600080C0E0E0E0E0E0E0E0E0C0800000000005
:100B700000000000000000000000E0F0F0F0E0ECF9
:100B8000EEF7F37020007C7C7C7E007E7E7E7F7F93
:100B90007F000080C0E07E5B4F5BFEC00000C000B5
:100BA000DCD7DEDEDED7DC00C00000000000000085
:100BB0000000000000000000000000000000000035
:100BC0000000000000F8FCFEFFE000FFFFFFFFFF59
:100BD000FF80FFFFFFFFFFFFFFFFFF1F0701000078
:100BE00000000000000000FFFFFF81000000000087
:100BF0000081C3C3C30000FFFFFF810000000000AD
:100C00000081FFFFFF0000FFFFFF01000000000068
:100C100000FFFFFF010000000001FFFFFF0000FFD9
:100C2000FFFF9D1C1C1C1C1C1C9DDFDFDF00000047
:100C3000000000000000000000000F1F3F7F7F7FCA
:100C40007F7F3F1E0C001F1F1F3F003F3F3F7F7FE6
:100C50007F00307B7F7830202030787F3B0003009E
:100C60000F7F0F0F0F7F0F00030000000000000038
:100C70000000000000000000000000000000000074
:100C80000000000000030F1F3F3F3F3F1F1F3F3F7B
:100C90007F7F7F3F3F1F3F7F7F7F7F7C7878381C3F
:100CA0000F00000000000000010307070707070707
:100CB00007070301000000000103070707070707F4
:100CC00007070301000000070707000000000000FD
:100CD00000070707000000000000070707000000EA
:100CE00001030707070707070707030100000000C4
:100CF00000000000000000000000000000000000F4
:100D000000000000000000000000000000000000E3
:100D100000000000000000000000000000000000D3
:100D200000000000000000000000000000000000C3
:100D300000000000000000000000000011241FBEA1
:100D4000CFEFDAE0DEBFCDBF04B603FE18C080915E
:100D5000400790914107A0914207B0914307873027
:100D6000904BA740B04B59F41092400710924107A6
:100D70001092420710924307E0E0F8E3099527E05C
:100D8000A0E0B2E001C01D92A034B207E1F712E08A
:100D9000A0E0B1E0E6EAF4E602C005900D92A030D2
:100DA000B107D9F70E9465270C94FD310C9400001F
:100DB0008F929F92AF92BF92CF92DF92EF92FF926B
:100DC00090914B01981305C090913405903209F42D
:100DD0004BC080934B0190E290933405C82ED12CE8
:100DE000F12CE12C10923305C701B6012AE030E066
:100DF00040E050E00E94CC31605D603331F0C114BE
:100E0000D104E104F10409F460E26093320560E288
:100E10008AE0C816D104E104F10490F08AE0882E3B
:100E2000912CA12CB12CC701B601A50194010E94FF
:100E3000CC31CA01B901A50194010E94CC31605D99
:100E40006093310520E284E6C816D104E104F10480
:100E500048F0C701B60124E630E040E050E00E94CF
:100E6000CC31205D2093300580E395E0FF90EF903A
:100E7000DF90CF90BF90AF909F908F900895FC012E
:100E8000AC014C5F5F4F8FEF91E32191822728E007
:100E900030E087FF09C0880F892721503109C9F741
:100EA000E417F50791F70895880FF7CFE8EDF0E024
:100EB00080818E7F80831092E2001092DA0010927F
:100EC000E100A0EEB0E08C9181608C9380818F77FF
:100ED000808319BCA7EDB0E08C918E7F8C938081CC
:100EE0008F7E80831092FE0408952091E40030915B
:100EF000E50095E6A9012091EC00822F817020FF8A
:100F000006C08091E80080FF06C080E0089520912F
:100F1000E80022FD1AC080912305882389F08530DE
:100F200089F08091EB0085FD0FC02091E4003091A5
:100F3000E50042175307F9F29150E1F684E0089575
:100F400082E0089583E0089581E008958091250569
:100F500087FF13C08091E80082FF06C08091E800FF
:100F60008B778093E80004C0809123058111F2CF34
:100F70000895809123058823D9F38091E80080FFAC
:100F8000F8CF8091E8008E77ECCF982F9093E9000E
:100F9000242F762F50E0891731F07091EC002091CA
:100FA000ED005091F00021FD07C09F5F973071F771
:100FB0008093E90081E008953091EB003E7F30930B
:100FC000EB003091ED003D7F3093ED003091EB0070
:100FD00031603093EB007093EC002093ED00509360
:100FE000F0002091EE0027FDE0CF80E00895B0E012
:100FF000A0E0EDEFF7E00C945A30C8EDD0E0888126
:101000008F7E8883E7EDF0E080818160808384E0DB
:1010100082BF81E08093FE0488818E7F888302EE08
:1010200010E0F80110821092DA0081EEC82ED12C67
:10103000F601108288818F77888388818068888311
:1010400088818F7D888319BC109223051092240516
:10105000109222051092210590EEE92EF12CF70155
:1010600080818B7F808388818160888342E060E01B
:1010700080E00E94C507F60180818E7F8083F801A1
:10108000808181608083808188608083F701808196
:101090008E7F8083888180618883CDB7DEB7E8E06A
:1010A0000C947630FC0180912B0590912C058617CD
:1010B0009707A0F06115710529F49091E8009E77DB
:1010C0009093E80090E06115710551F4911108C00A
:1010D0008091E80082FF34C080E00895BC01F2CF27
:1010E000809123058823C1F18530C1F18091E8000A
:1010F00083FD30C08091E80082FDEACF8091E80056
:1011000080FFE1CF8091F3002091F200382F61152C
:10111000710519F02830310558F091E0283031057B
:1011200009F090E02091E8002E772093E800CBCFE3
:1011300081918093F100615071092F5F3F4FE7CF9C
:1011400080912305882341F0853041F08091E800AB
:1011500083FFBECF81E0089582E0089583E0089583
:101160008091000508952FB7F8946091F80470916C
:10117000F9048091FA049091FB042FBF0895209107
:101180004A012223C9F02091FC0427FF15C0E62F55
:10119000E695E695E695EE31D8F4E80FF92FF11DC6
:1011A000677021E030E001C0220F6A95EAF72095D0
:1011B0008281282322830895FC013296089621918A
:1011C000621303C0DF0111971C92E817F907B9F702
:1011D000089520914A012223C1F02091FC0427FFA9
:1011E00014C0E62FE695E695E695EE31F8F4E80FA3
:1011F000F92FF11D677021E030E001C0220F6A95E0
:10120000EAF78281822B82830895FC0132962FEFC8
:1012100030E04191641751F02F3F19F4411101C0A2
:10122000232F3F5F3630A9F72F3F09F40895820F2F
:10123000911D27FD9A95FC0162830895A3E0B0E01B
:10124000E4E2F9E00C9460302091F5043091F6046A
:1012500028173907A1F09093F6048093F504E091E4
:10126000F304F091F404309751F024E029839B8338
:101270008A830680F781E02DCE0101960995239699
:10128000E2E00C947C30A3E0B0E0E9E4F9E00C94F7
:1012900060302091F1043091F20428173907A1F051
:1012A0009093F2048093F104E091F304F091F4043C
:1012B000309751F023E029839B838A830680F7814E
:1012C000E02DCE01019609952396E2E00C947C3046
:1012D000FA01811101C0FB01099508950895E0E329
:1012E000F3E0118282818460828308958091E60414
:1012F000982F9E7F61F4817082608093E6048091D4
:10130000E904893718F088E78093E9040895863561
:10131000B0F381708465F1CFAF92BF92DF92EF920C
:10132000FF920F931F93CF93DF93182F062FE9019E
:10133000493708F048E7E42FF0E0E457FB4F01118C
:1013400010C0E4915E2F4E2F4983E8835A83DF91CA
:10135000CF911F910F91FF90EF90DF90BF90AF90D2
:101360000895202F30E04491D42EE42EF12C56E045
:10137000159FC0011124EFEFF0E0BF010E943C3047
:10138000812F90E0880F991F55E5569FD001579FF8
:10139000B00D11248A1B9B0B982F990F890F5F01A9
:1013A000A21AB30AAE9CD001AF9CB00DBE9CB00D8A
:1013B00011245B2F089F80011124012F11275F0149
:1013C000A01AB10AAE9C8001AF9C100DBE9C100DFE
:1013D00011245F01A81AB108A29EC001A39E900D1E
:1013E000B29E900D1124892F9927E81BF90BEE9DD1
:1013F000C001EF9D900DFE9D900D1124E92F6230EC
:101400007105A1F050F46115710509F49DCF6130AB
:10141000710581F0EB2F512F97CF6430710569F082
:1014200080F06630710509F48FCFF4CFE42F4B2F95
:10143000592F8ACFE42F412F87CFEB2F542F492FDD
:1014400083CF4B2F5D2DE12F7FCF80911F0380FD38
:1014500016C081FD16C082FD16C080911E03882330
:10146000A1F0883280F428E0829FC001112468E254
:1014700070E00E94A130862F672B39F0089582E03A
:10148000089584E0089588E0089581E008958091AA
:101490001F0380FD14C081FD14C082FD16C0809121
:1014A0001D03882381F08E3180F420E5829FC001E6
:1014B00011246EE170E00E94A130862F089584E12E
:1014C000089588E2089588E0089580E5089580E011
:1014D0000895F894E82FE295EF70F0E031A1282FFD
:1014E0002F7081E090E001C0880F2A95EAF7982FCD
:1014F0009095932391A392A1892B82A37894089528
:101500009091FC0492FF06C0282F28712830F9F42E
:10151000877F846093FF06C0282F28712831F1F45B
:10152000877E84612091FD0420FF06C0382F38712A
:101530003830D9F4877F816021FF06C0282F2871B9
:101540002831D1F4877E816194FD877E0895282F0C
:1015500024712430F9F68B7F8860DCCF282F24712A
:10156000243101F78B7E8861DDCF382F3171313026
:1015700019F78E7F8860E0CF282F2171213121F764
:101580008E7E8861E1CF82389105B9F1B0F4813364
:10159000910509F47DC048F48932910509F46DC0C4
:1015A0008A32910509F47BC008958533910509F4C9
:1015B0005FC08933910509F10895833E9105D9F102
:1015C00038F4803E910529F1823E910579F1089524
:1015D000863E9105D9F1873E910509F43EC0843ECF
:1015E000910541F52091FD0421FF24C08091FC0468
:1015F00084FD19C087EE90E008952091FC042370CB
:1016000009F05AC02091FD0423FF14C089E290E044
:1016100008952091FC0420FD38C03091FD0430FF76
:1016200009C024FF43C090E080E008952091FC04AD
:1016300022FDF7CF08952091FC0422FD3AC030919D
:10164000FD0430FD39C024FFF5CFEDCF2091FC041F
:1016500023FFF0CF24FDE7CFCDCF2091FC0423FD65
:101660002EC03091FD0431FFEECF84EE90E008955E
:101670002091FC0425FFDECFC9CF2091FC0425FD7D
:1016800021C02091FD0423FFD5CF89E390E0D2CF84
:101690002091FC0426FFCECF8AE290E008952091AD
:1016A000FC0426FFC7CF81E390E0089583EE90E02D
:1016B000089582EE90E0089580EE90E0089586EE21
:1016C00090E0089585E390E00895972F7830B8F47E
:1016D0006630A8F48430B0F470E026E0929F600D8C
:1016E000711D1124FB0190E3899FE00DF11D112470
:1016F000EE0FFF1FE455FF4F85919491089580E010
:1017000090E0089581E0FCCF1F93CF93DF930E9478
:10171000C30AEC01C11580E5D807F0F5C11580E4D6
:10172000D80708F09CC0C03ED10520F5CD3CD105BE
:1017300008F082C0C83AD10578F4C53AD10508F05E
:1017400073C0C130D10519F1209709F1C430D1051A
:10175000F0F4D0E0C0E01BC0C33CD105D0F7C85ABC
:10176000D0E0CC0FDD1FC557DE4F0990D881C02DCA
:10177000D4640DC0C11580E2D80708F0D1C0C115EE
:1017800081E0D80708F05AC0C83ED10510F7CE0155
:10179000DF91CF911F910895C03682E5D80718F5E3
:1017A000C03482E5D80708F06BC0C03282E5D807A4
:1017B00008F05FC0C11582E5D80708F497C02C2F48
:1017C0002695269580E2289F900111248C2F837006
:1017D000C1E0D0E002C0CC0FDD1F8A95E2F7C22B3A
:1017E000D32BDD68D4CFC03A82E5D80760F4C03887
:1017F00082E5D80708F459C0CF71D0E0DC2FCC27A0
:10180000C46FD06AC4CFC03C82E5D80708F462C078
:10181000C03E82E5D80708F09CCFDC2FCC27CC2730
:10182000DF71C06FD06AB3CFC55AD0E0C857DE4F62
:10183000C881D0E0D064ABCFD065A9CF8D2F0E94F6
:10184000800A182FCE0199270E94C30AC12FD0E029
:10185000DC2FCC27CC27DF71C82BD92B98CFCE011A
:1018600099270E94C30ACC27DF70C82BD92BD06AD6
:101870008ECFCF71D0E0DC2FCC27C16FD06A87CF5D
:101880002C2F26952695277080E2289F9001112401
:101890008C2F8370C1E0D0E002C0CC0FDD1F8A9591
:1018A000E2F7C22BD32BDC6872CF2C2F269526951E
:1018B000277080E2289F900111248C2F8370C1E053
:1018C000D0E002C0CC0FDD1F8A95E2F7C22BD32BEC
:1018D000DA685DCF8C2F8F710E94800AC82FD0E00C
:1018E000DC2FCC27CC27DF71D06251CF8C2F8F71AA
:1018F0000E94800A55E0D695C7955A95E1F7CF70BA
:10190000D0E0DC2FCC27282F30E084FF05C044E056
:10191000220F331F4A95E1F7C22BD32BD06937CF63
:101920008D2F8F710E94800A182FCE0199270E9457
:10193000C30AC12FD0E0DC2FCC27CC27DF71C82B06
:10194000D92BD2CF809196028111109296020895E0
:1019500080959091950298239093950208952091F7
:1019600072029091410256E0291302C080E008956E
:1019700030E0529FF001539FF00D1124EE5BFD4FBC
:101980007181761306C07081781303C0728174135D
:1019900004C02F5F3F4F2770E7CF81E0089580910B
:1019A000720290914102981301C008958F5F877071
:1019B000FACFB0E0A0E0EFEDFCE00C9459307C01F0
:1019C0000091EB021091EC028091970290919802A5
:1019D000082B192BCFE0D0E0CC24C394D12CBC2E03
:1019E000C6010C2E02C0880F991F0A94E2F78023CB
:1019F0009123892B49F4219790F7B12C8B2DCDB7EA
:101A0000DEB7E9E00C947530B7018C2F0E94650BAE
:101A10000E94840B019779F3F1CFCF93DF93EC0110
:101A20000E94D90CBE010E94650B0E94840BDF91BD
:101A3000CF910895983078F5863068F5E82FF0E07A
:101A400086E0989FE00DF11D11249E2F977083E092
:101A5000F695E7958A95E1F7EE0FFF1FEE0FFF1F52
:101A6000ED5DFD4F50E040E080E0219130E0092E37
:101A700002C0369527950A94E2F721703327042E89
:101A800001C0220F0A94EAF7822B4F5F5F4F443068
:101A9000510559F7089580E00895983098F58630FB
:101AA00088F5E82FF0E086E0989FE00DF11D112405
:101AB0008E2F877041E001C0440F8A95EAF783E0DA
:101AC000F695E7958A95E1F7EE0FFF1FEE0FFF1FE2
:101AD000ED5DFD4F30E020E070E05191DF011197A6
:101AE000CB01022E02C0969587950A94E2F7817089
:101AF00081958527842385278C932F5F3F4F243042
:101B0000310559F708959093EC028093EB02089504
:101B100021E030E002C0220F331F8A95E2F72095C2
:101B200030958091EB029091EC02822393230E94E6
:101B3000830D089590917302809589238093730299
:101B4000282F277091F4282F082E000C330B9217A2
:101B5000130659F09091FD0492FF07C08595859575
:101B600085950E94880D10927302089521E030E05F
:101B700002C0220F331F8A95E2F78091EB02909109
:101B8000EC02822B932B0E94830D08959093980270
:101B9000809397020895FC0183819481892B29F019
:101BA0008081918189238F3F51F480E00895843FA3
:101BB000E1F717C0883EA8F0813FB9F712C08081D5
:101BC00091810E940D0D92959F70963099F358F473
:101BD000925F9F70923048F7803F19F040F7883E3F
:101BE00020F781E008959A5FF4CFCF93DF93682FB9
:101BF00081E06A3019F06D3031F480E00E94830E8C
:101C0000DF91CF91089580913E0790913F0726E0A4
:101C1000FC01A8E3B7E001900D922A95E1F7603E40
:101C200008F458C026E0FC0111922A95E9F7C0910A
:101C30003E07D0913F0746E050E0BE0188E397E0C1
:101C40000E943C319E0128533540892B41F1C90146
:101C500045E0969587954A95E1F741E050E0BA0155
:101C600002C0660F771F8A95E2F7CB0160913605B7
:101C700070913705862B972BB9016B5F7F4FE5E09D
:101C800076956795EA95E1F702C0440F551F6A956E
:101C9000E2F7842B952B90933705809336052A5FC6
:101CA0003F4F40913505642F70E0C9010E943C30E0
:101CB000481B463010F4240F311D211572E0370700
:101CC00010F030E020E0285C3A4F30933F0720933B
:101CD0003E0796CFF6E06F9FB00111246450784F15
:101CE00046E050E00E942631A2CFCF93DF93EC0173
:101CF000FE018491811103C0DF91CF9108950E946C
:101D0000F50D2196F5CFCF93382FE0913E07F09156
:101D10003F07E853F54020913505622F70E0CF0171
:101D20000E943C30281B822F332361F066E00E9422
:101D30008730C82FC15010F4CF91089580E20E94DF
:101D4000F50DF8CF9F01280F311D2115324018F0F5
:101D500080E0F0E0E0E08E0F9F2F911D885C9A4FAD
:101D600090933F0780933E07E7CF80919502909133
:101D70009402892B80930202909196029923A1F0FC
:101D8000892B8093020280914A018823E1F180919E
:101D9000FC0487FF38C08EE1E4E0F2E090E081507F
:101DA000A0F591110E94A20C40E250E064E772E0BD
:101DB00082E092E00E943C31892B21F180E2E2E056
:101DC000F2E0A4E7B2E001900D928A95E1F7E0918C
:101DD000F304F091F4043097A9F080914A0188232C
:101DE00059F08091FC0487FF07C080910202809324
:101DF000030286E0809302020280F381E02D82E0FC
:101E000092E00995089586E0C7CF2191222339F207
:101E10009F5FC5CF882321F00E94A80C0E94B50EB9
:101E20000895882339F090919502982B909395020C
:101E30000E94B50E08950F931F93CF93DF93EC018B
:101E4000FC0101900020E9F78F0101501109C01732
:101E5000D10728F0DF91CF911F910F9108958991BB
:101E60000E94F50DF4CF0F931F93CF93DF938B0157
:101E7000EA0190912305943061F58093E9008FEF9A
:101E80009091E800815095FD06C095ED9A95F1F787
:101E900000008111F5CF8091E80085FF1AC00E94F3
:101EA0007507811111C08091E80085FD06C0809101
:101EB000E8008E778093E800F2CFF80181918F01DE
:101EC0008093F100219779F78091E8008E778093D5
:101ED000E800DF91CF911F910F91089543E050E00A
:101EE000BC0182E00E94330F089546E050E0BC013F
:101EF00082E00E94330F0895CF93DF93EC0180912D
:101F00004A01811111C048E050E0BE0181E00E9409
:101F1000330F80E2FE01A1E0B5E001900D928A95B9
:101F2000E1F7DF91CF9108958091FC0487FF05C010
:101F300040E282E050E0BE01EACF48E081E0FACF23
:101F400081E08093E00080E28093D8001092C90085
:101F50008FE19EE40197F1F700C0000087E090EB6D
:101F6000DC018093400790934107A0934207B09310
:101F7000430788E19CE00FB6F894A8958093600031
:101F80000FBE90936000FFCF609146018091E60400
:101F900080FF20C08091450143E0849FC00111244F
:101FA0008A5C9C4F539A2BB1277F3BB138605FB757
:101FB000F894FC01649FE00DF11D1124BF01681726
:101FC0007907D1F45FBF8FE594E00197F1F700C086
:101FD00000000895809147019091480123E0829F7D
:101FE000F0011124EA5CFC4F8917A0F611821082DF
:101FF00012828F5F3396F8CFFC014191CF01E8E068
:102000003BB9000000C047FF2BB9440F000000C0DF
:1020100000C000C02BB900C0EA9591F7D0CF0F9354
:102020001F93CF93DF93EC0110E000E09091490102
:102030009017110609F06CF40E94C40F8C8190E097
:102040000196817099278C83DF91CF911F910F9119
:10205000089520914701A801420F511D9A01220FB6
:10206000331F240F351F2A5C3C4F4C816091E804DC
:102070008091E70496959017110651F04CF0442397
:1020800049F04091E9040E948C090F5F1F4FCECFA9
:102090004423B9F340E0F7CFB0E0A0E0E2E5F0E19F
:1020A0000C945630EC014C81042F10E09801D801BB
:1020B0000E94EE319B01AC010E94B9314B015C01E1
:1020C000E0E2F0E0E01BF10BA5E5B0E0AC019B0124
:1020D0000E94B9316B017C019F01DF010E94BB307E
:1020E0009B01AC010E94C4319B01AC01280D391D3C
:1020F0004A1D5B1DC701B6010E94CC31F22E822F12
:1021000090E039E23F1520F143E0249F9001112433
:1021100035952795122F109500E085E5E82EEF18EC
:1021200080914901081718F10E94C40F9C8181E039
:10213000992319F0903219F48FEF80934401809124
:102140004401890F8C83CDB7DEB7ECE00C9472307C
:1021500025E530E0B901681B790B9B01220F331F85
:10216000260F371F37FFD4CF2F5F3F4FD1CF8E2D94
:1021700001FD8F2D20914701622F600F7727771F78
:102180009B01220F331F260F371F2A5C3C4F412F24
:102190006091E8040E948C090F5FC2CFEF92FF921A
:1021A0000F931F93CF93DF93EC018C81811109C0B2
:1021B00081E08C831092340392E0909343018093EA
:1021C0004201809147019091480123E0829FF001F4
:1021D0001124EA5CFC4F891758F110E003E060918C
:1021E0004901161758F10E94C40F809142012091B5
:1021F0003403280F2093340390914301980F909358
:102200004301191654F4022E000C330B409149017E
:102210004150550B2417350734F0819580934201C6
:10222000813009F41C82CDB7DEB7E6E00C9478303B
:102230001182108212828F5F3396CDCFE12EF12C66
:1022400070E0C7010E94A13020914701820F482F02
:1022500050E020913403022E000C330BE216F306FB
:10226000BCF020914301022E000C330B2E153F05CC
:102270007CF0809F900111242A5C3C4F4091E9043E
:102280006091E8048091E7040E948C091F5FA7CF4A
:10229000FA01EE0FFF1FE40FF51FEA5CFC4F1182FD
:1022A00010821282F3CFB0E0A0E0E9E5F1E10C94F6
:1022B0005630EC018A81BB24BA9480FD02C0BB2455
:1022C000B394A09049018C81811109C081E0B812BA
:1022D00020C08FEF8A0D8093330381E08C83F12C33
:1022E000E12C46E3942EEA14B8F00E94C40F8091CA
:1022F000330391E0B91257C0811150C08091490158
:102300008150809333031C82CDB7DEB7ECE00C9490
:10231000723010923303E1CF009147010E0D1F2D53
:10232000111DC801880F991F080F191F0A5C1C4F47
:10233000F80111821082128234E0C32ED12C812C3C
:1023400080913303880D87332CF1692D0E949330DF
:10235000892F082E000C990B8E159F0591F4809102
:10236000E9048C9DA0018D9D500D11245595479534
:102370005595479598016091E8048091E7040E9483
:102380008C098B0CF1E0CF1AD108D1F68FEFE81A47
:10239000F80AA9CF87FFDDCF8A0DDBCF815080936C
:1023A0003303BC82B1CF90E001966091490170E0A7
:1023B0000E94A130809333038C83A6CFEF92FF92CB
:1023C0001F93CF93DF93EC0110E0EE24EA94F12CFD
:1023D00060914901161770F00E94C40F9A818C8198
:1023E00090FF27C08F5F8C83DF91CF911F91FF906B
:1023F000EF90089520914701422F410F5527551F17
:10240000CA019A01220F331F280F391F2A5C3C4F43
:1024100070E0C7010E94A130962F8C814091E904A1
:102420006091E804199F800D11240E948C091F5FA0
:10243000CFCF8150D8CF9091E60490FF0EC09091FD
:1024400047012091480133E0939FF0011124EA5C99
:10245000FC4F921718F00E94C40F08958183608387
:1024600042839F5F3396F5CFA3E0B0E0EAE3F2E169
:102470000C945E308C018091350381110AC09E015D
:102480002F5F3F4F48E76FEF0E948C098A8180934E
:102490003503F8016481613069F08091350340E0D3
:1024A000662361F040E0623011F44091350380E032
:1024B00060E004C06091350340E080E00E941B12A0
:1024C000F801848190E0019663E070E00E94A13001
:1024D00084832396E4E00C947A30A3E0B0E0E3E751
:1024E000F2E10C9460309091E60490FF0AC09E01E6
:1024F0002F5F3F4F0E948C094B8169818A810E9426
:102500001B122396E2E00C947C30CF93DF93EC0116
:10251000E6EEF4E0438162818C810E946D128C8131
:102520008F5F8C83DF91CF910895CF93DF93EC0180
:10253000EC81F0E0EF56FA4F4491E6EEF4E0628170
:1025400081810E946D128C818F5F8C83DF91CF918E
:102550000895B0E0A0E0EFEAF2E10C9458307C017D
:102560005B016A018091C70201E010E08A3010F43B
:102570000AE010E0C1E0D0E0B501C701F60109951D
:10258000811104C021960C171D072CF4CDB7DEB7BE
:10259000EAE00C947430CC9F9001CD9F300D300D4B
:1025A000112490E080E045E34A95F1F700000196A0
:1025B00082179307C1F7E0CF8091A502811119C05E
:1025C00088EC90E02091E30027FD10C0EFE3FCE9E8
:1025D0003197F1F700C000000197A1F782E08093E6
:1025E000A5020E9456071092230503C081E0809344
:1025F000A50281E09091A502913011F080E008954C
:1026000008950E94DC12882359F0E091F304F091C0
:10261000F404309729F00190F081E02D0995089598
:1026200080E008950F931F930E94DC12882329F005
:102630000E94B3081F910F9108950E94B308009162
:10264000C8021091C9022091CA023091CB02600FDA
:10265000711F821F931FEECFB0E0A0E0E2E3F3E131
:102660000C945A306C017B0164E670E088E70E94AC
:102670009A2DEC0197FD12C010E000E0F601E00F8A
:10268000F11F849164E670E00E94062EEC01892B14
:1026900029F40F5F1F4F0E151F0581F70E947C2E36
:1026A000CE01CDB7DEB7E8E00C9476308091EF0430
:1026B0009091F004911103C091E089270895882337
:1026C00069F062E070E083E996E00E942C13892BA8
:1026D00019F08091EF0408951092EF048091EF04B7
:1026E000EBCFCF93C091EF048091F0048823D1F019
:1026F0000E94B308605A75418F4F9F4F6093EB045F
:102700007093EC048093ED049093EE04C11108C023
:1027100062E070E081E996E00E942C13892B29F099
:10272000C091EF048C2FCF91089581E08093EF0446
:10273000F7CFB0E0A0E0EFE9F3E10C945230FC01F8
:102740006280448081E08483E1E9F5E07490E0E117
:10275000F6E0E491C091E904C695C158D0E0CC0FF1
:10276000DD1FCD2FDD27812C75E0972EAA24AA949A
:10277000B12C55245A94E719EE2EF12C8091490181
:10278000881638F00E94C40FCDB7DEB7E0E10C9494
:102790006E30C82CD12C82E0861568F09C9CF0012C
:1027A0009D9CF00D1124E852FC4F8091E70480833A
:1027B0008091E8048183411023C09C9CF0019D9C82
:1027C000F00D1124E852FC4F138212822091470130
:1027D000C601820F911D9C01220F331F280F391F44
:1027E0002A5C3C4F9C9CF0019D9CF00D1124E8520A
:1027F000FC4F4281618180810E948C098394BECF0D
:102800009C9C80019D9C100D112408521C4FF801C6
:1028100083818823F1F081508383859DC001112439
:10282000648170E00E943C30FB01FF27EF56FA4FB5
:102830008491E82FE719E59DC0011124B7010E949A
:102840003C308091E904689FB0011124F801728343
:10285000BDCF0E941631B5010E94A1308C179D0793
:102860000CF0B4CFF2E0F61598F40E941631B501E1
:102870000E94A130F80180830E9416312091E80463
:102880002695622F70E00E94A130280FF801218365
:102890009C9CF0019D9CF00D1124E852FC4F12828B
:1028A0008091E904893C58F088EC9C9CF0019D9C47
:1028B000F00D1124E852FC4F8483838387CF843149
:1028C000A0F784E1F2CFCF92DF92EF92FF926B01FB
:1028D0007C010E947609B701A60188E090E00E9481
:1028E0007831FF90EF90DF90CF900895A3E0B0E0B3
:1028F000ECE7F4E10C945930082FD62EF42EC22EBA
:102900009091E60490FF3CC02091E704281308C092
:102910008091E804861304C08091E904841729F0AB
:1029200080913203826080933203E92FE695AE2FC7
:10293000B0E0AB52BE4F8C91809330039E7F9230BB
:1029400019F59E012F5F3F4F4F2D6D2D802F0E9457
:102950008C094B8169818A810E941B120093E704D4
:10296000D092E804F092E904CC2051F06091E604A2
:102970007091E7048091E8049091E9040E94631447
:102980002396E9E00C947530823019F4F090E90454
:10299000E5CF8630A1F1893091F18931F9F6E9511D
:1029A0006E2F6170B62EE695F0E0E457FA4F149161
:1029B000E12C60914901E61618F00E94C40FCECFB9
:1029C000E19EC001112470E00E943C30802FB110C4
:1029D00014C0860F20914701622F6E0D7727771F55
:1029E0009B01220F331F260F371F2A5C3C4F4F2DB0
:1029F0006D2D0E948C09E394DCCF861BEBCF022F58
:102A0000ADCFE6EEF4E0438121E1421B08F440E063
:102A100021E0628181810E9476140895E6EEF4E05F
:102A2000438121E1420F08F44FEF21E0628181816F
:102A30000E9476140895E6EEF4E0628121E1621BC3
:102A400008F460E021E0438181810E9476140895BA
:102A5000E6EEF4E0628121E1620F08F46FEF21E01D
:102A6000438181810E9476140895E6EEF4E081812D
:102A700021E04381628188500E9476140895E6EE39
:102A8000F4E0818121E043816281885F0E947614B5
:102A900008958091EA04882319F081508093EA0414
:102AA0006091E6047091E7048091E8049091E90454
:102AB0000E94631408958091EA04833018F48F5FB4
:102AC0008093EA046091E6047091E7048091E80441
:102AD0009091E9040E9463140895E6EEF4E083E027
:102AE000808311828FEF828388E783831482A0E33F
:102AF000B3E012968C911297836012968C9360814A
:102B00007181828193810E94631408959091FD04E4
:102B100092FB222720F9281779F080FB92F99093F5
:102B2000FD046091FC047091FD0484E090E00E943B
:102B3000843182E00E949A0D0895A4E0B0E0E3EAB7
:102B4000F5E10C945F304091AE025091AF0260917C
:102B5000B0027091B1022FB7F8948091F80490916F
:102B6000F904A091FA04B091FB042FBF841B950BCC
:102B7000A60BB70B11E084369105A105B10570F1E4
:102B80000E9412136E5F7F4F8F4F9F4F69837A832E
:102B90008B839C8380911501909116018E549D4FDB
:102BA0004091140150E04530510510F044E050E0F0
:102BB000BE016F5F7F4F0E94493182E090E00E942A
:102BC000C62F182F882351F00E94B3086093AE02DD
:102BD0007093AF028093B0029093B102812F24963C
:102BE000E3E00C947B30A8E0B0E0E9EFF5E10C9471
:102BF000603085E0E6EEF4E0DE01119601900D9282
:102C00008A95E1F78091300390913103A0913203CE
:102C10008E839F83A88728854091C3025091C40268
:102C20006091C5027091C6023FB7F8948091F80494
:102C30009091F904A091FA04B091FB043FBF841B6A
:102C4000950BA60BB70B84369105A105B10510F4C1
:102C5000222319F180911D0190911E018E549D4FE8
:102C600040911C0150E04930510510F048E050E01F
:102C7000BE016F5F7F4F0E94493183E090E00E9468
:102C8000C62F882369F00E94B3086093C302709333
:102C9000C4028093C5029093C6021092320381E071
:102CA0002896E2E00C947C30EF92FF921F93CF9332
:102CB000DF9300D000D00F92CDB7DEB77B0190E05C
:102CC00080E00E94C62F182F882309F46DC0409120
:102CD000070150E04115510511F041E050E06091CD
:102CE0000801709109016E547D4FCE0105960E9436
:102CF00049314091AA025091AB026091AC027091AF
:102D0000AD022FB7F8948091F8049091F904A09146
:102D1000FA04B091FB042FBF841B950BA60BB70BD5
:102D200084369105A105B10538F483EB92E00E9449
:102D30003F079D818917C1F181E090E00E94C62F75
:102D4000882309F458C040910F0150E045305105E7
:102D500010F044E050E060911001709111016E5448
:102D60007D4FCE0101960E94493183EB92E00E9493
:102D70003F079D8189133FC00E94B3086093AA0258
:102D80007093AB028093AC029093AD0289819A81DB
:102D9000AB81BC818093A6029093A702A093A80266
:102DA000B093A90211E00EC08091B3029091B402D9
:102DB000A091B502B091B60289839A83AB83BC839C
:102DC0001111E4CF8091A6029091A702A091A802D0
:102DD000B091A902F70180839183A283B383812FED
:102DE0000F900F900F900F900F90DF91CF911F9148
:102DF000FF90EF90089510E0E5CF67EE7EEF90E052
:102E000080E00E94843160E082E090E00E946631C0
:102E100060E083E090E00E94663110929802109288
:102E2000970260E074E184E090E00E94843160E009
:102E300086E090E00E9466316FEF87E090E00E94AC
:102E4000663140E050E0BA0188E090E00E947831BD
:102E500060E08DE090E00E94663140E050E0BA0111
:102E600088E190E00E94783160E087E190E00E9484
:102E7000663140E050E0BA018CE190E00E94783188
:102E800070E060E080E290E00E94843140E050E039
:102E9000BA0188E190E00E94783140E050E0BA0148
:102EA0008FE090E00E94783140E050E0BA0183E189
:102EB00090E00E94783108951F920F920FB60F9202
:102EC00011242F933F934F935F936F937F938F932F
:102ED0009F93AF93BF93EF93FF938091E10082FFA5
:102EE00009C08091E20082FF05C08091E1008B7FE4
:102EF0008093E1008091DA0080FF24C08091D800A7
:102F000080FF20C08091DA008E7F8093DA0080916C
:102F1000D90080FF9DC080E189BD82E189BD09B4EF
:102F200000FEFDCF81E0809323058091FE04811196
:102F300009C00E9456070E94F7078091E200846052
:102F40008093E2008091E10080FF17C08091E20051
:102F500080FF13C08091E2008E7F8093E200809119
:102F6000E20080618093E2008091D80080628093CB
:102F7000D80019BC85E0809323058091E10084FF8F
:102F80002BC08091E20084FF27C080E189BD82E1EF
:102F900089BD89B5982F917080FFFBCF8091D800B3
:102FA0008F7D8093D8008091E1008F7E8093E10037
:102FB0008091E2008F7E8093E2008091E200816048
:102FC0008093E20080912405882309F447C084E0BF
:102FD00080932305809123058091E10083FF27C022
:102FE0008091E20083FF23C08091E100877F80937E
:102FF000E10082E080932305109224058091E10096
:103000008E7F8093E1008091E2008E7F8093E200CA
:103010008091E20080618093E20042E060E080E025
:103020000E94C5078091F00088608093F000FF91B6
:10303000EF91BF91AF919F918F917F916F915F9130
:103040004F913F912F910F900FBE0F901F901895A9
:1030500019BC109223051092FE0474CF8091E300F6
:1030600087FD93E090932305B5CF78941F921FB608
:103070001F9211248F939F93AF93BF938091F80475
:103080009091F904A091FA04B091FB040196A11D5E
:10309000B11D8093F8049093F904A093FA04B093BF
:1030A000FB04BF91AF919F918F911F901FBE1F9006
:1030B00018959C014FB7F8948091F8049091F90409
:1030C000A091FA04B091FB044FBF821B930B0895AB
:1030D0002FB7F8948091F8049091F904A091FA0424
:1030E000B091FB042FBF08950E9468189C01909135
:1030F000260380912703982B21F0309323032093FC
:1031000022039091280380912903982B21F030937A
:10311000210320932003E091F304F091F40430970D
:1031200049F082E0809324030480F581E02D84E25D
:1031300093E0099508951092950280914A01E4E088
:10314000F2E0882329F18091FC0487FF21C08EE101
:10315000DF011D928A95E9F790E080E00E94430923
:1031600090E080E00E941E09109294020E94B50E29
:1031700086E0E4E2F3E0DF011D928A95E9F7109220
:103180001D0310921E0310921F030E9474180895CD
:1031900086E0DECFAAE2B0E0E0EDF8E10C945F302B
:1031A00085E295E02091F100FC012193CF01F5E04B
:1031B0008D329F07B9F780912605833009F470C0DE
:1031C000B8F4813009F447C0823009F4B1C080916D
:1031D000E80083FF7EC280912505909126059A30F4
:1031E00008F077C2E92FF0E0E150FE4C0C94B530C6
:1031F0008A3009F48CC08B3009F46FC0893039F7FC
:1032000080912505813219F78091290590912A0531
:103210000297E8F68091E800877F8093E80080912C
:10322000E80082FF38C09091F3008091F20002978D
:1032300031F48091F100813011F0863021F48091D9
:10324000F100809300058091E8008B778093E8007F
:103250000E94A607BCCF80912505813A09F0B7CF1F
:103260008091E800877F8093E80080912905909104
:103270002A05892B61F460E281E095E070E00E940C
:1032800052088091E8008B778093E800A0CF60E03F
:1032900090E080E0F3CF809123058111C0CF97CFDC
:1032A00080912505813A09F092CF8091290590916E
:1032B0002A05892B09F08BCF8091E800877F8093C6
:1032C000E8008091E80080FFFCCF80914A01809364
:1032D000F1008091E8008E77B9CF80912505813289
:1032E00009F075CF8091290590912A05892B09F065
:1032F0006ECF8091E800877F8093E8000E94A60748
:103300008091270580934A010E949B1860CF80918D
:103310002505813209F05BCF8091E800877F80939B
:10332000E8000E94A607809128058093FF044FCFF4
:1033300080912505813A09F04ACF8091E800877F86
:103340008093E8008091E80080FFFCCF8091FF042B
:10335000BECF803899F0823809F0BBC18091290531
:103360008F70873008F0B5C18093E9008091EB0041
:1033700085FB882780F91092E90006C0809121051D
:1033800090912205911182609091E800977F90932F
:10339000E8008093F1001092F1008091E8008E77B0
:1033A00094C1882309F482C1823009F092C18091CE
:1033B0002705811185C1809129058F702FEF280F76
:1033C000263008F086C18093E9002091EB0020FFB1
:1033D00077C1933031F48091EB0080628093EB00F1
:1033E0006FC19091EB0090619093EB0021E030E091
:1033F00001C0220F8A95EAF72093EA001092EA00B2
:103400008091EB008860EACF811163C1109127059C
:103410001F778091E3008078812B8093E300809177
:10342000E800877F8093E8000E94A6078091E8006B
:1034300080FFFCCF8091E30080688093E30082E00E
:10344000111183E08093230544C18058823008F035
:1034500040C180912705909128058C3D23E092077B
:10346000A1F583E08A838AE289834FB7F894DE016D
:10347000139620E03EE051E2E32FF0E05093570036
:10348000E49120FF03C0E295EF703F5FEF708E2F55
:1034900090E0EA30C0F0C7968D939D932F5F243162
:1034A00059F74FBF8091E800877F8093E8006AE278
:1034B00070E0CE0101960E9452088091E8008B775F
:1034C0008093E80006C1C096E7CF4091290550914E
:1034D0002A05292F33272330310509F444C078F514
:1034E0002130310509F46FC08BE390E0EBE8F7E0A1
:1034F0002230310509F0EDC02091E800277F2093AC
:10350000E80020912B0530912C058217930708F4D1
:103510009C0140E02115310509F064C0411162C0F1
:103520008091E80082FDC9CF80912305882329F28C
:10353000853019F28091E80083FFF2CFBECF2132AF
:103540003105A9F12232310509F0C3C041155105F9
:1035500009F443C04130510509F0BBC086EB90E04F
:10356000E5E9F6E0C9CF992781309105C1F00097D0
:1035700059F0029709F0ADC0E8EDF7E0E4918E2F25
:1035800090E0E8EDF7E007C0E8EFF7E0E4918E2F78
:1035900090E0E8EFF7E0009709F49BC0ADCFE6EECE
:1035A000F7E0E4918E2F90E0E6EEF7E0F4CF4115DE
:1035B000510571F04130510509F08BC089E090E070
:1035C000E6EBF7E099CF82E190E0E6ECF7E094CF0C
:1035D00089E090E0EDE9F7E08FCF80E490E0EBE464
:1035E000F7E08ACF80912305882309F466CF8530E0
:1035F00009F463CF8091E80083FD5FCF8091E800FC
:1036000082FD8ECF8091E80080FF84CF9091F300FF
:103610008091F2002115310519F08830910550F0A4
:1036200041E0089709F040E08091E8008E778093B0
:10363000E80070CF44914093F10031962150310958
:103640000196E8CF803809F044C08091E800877F78
:103650008093E800809124058093F1009ECE811133
:1036600038C0109127051230A0F58091E800877FBF
:103670008093E800109324050E94A607112311F0FF
:1036800084E005C08091E30087FDFACF81E080935C
:10369000230542E061EC81E00E94C50742E261EC53
:1036A00082E00E94C5078091230513C08091270501
:1036B000813079F481E0933009F080E08093220535
:1036C0001092E9008091E800877F8093E8000E94D3
:1036D000A6078091E80083FF0AC08091E800877FF9
:1036E0008093E8008091EB0080628093EB00AA96C3
:1036F000E3E00C947B301F920F920FB60F921124CF
:103700002F933F934F935F936F937F938F939F93E9
:10371000AF93BF93CF93DF93EF93FF93D091E900E3
:10372000DF708091EC00C82FC17080FDC0E810925E
:10373000E9008091F000877F8093F00078940E94E8
:10374000CA181092E9008091F00088608093F00020
:10375000CD2BCF70C093E900FF91EF91DF91CF9116
:10376000BF91AF919F918F917F916F915F914F9199
:103770003F912F910F900FBE0F901F9018950E94B0
:103780009B182FEF84E39CE0215080409040E1F7AC
:1037900000C0000088E19CE00FB6F894A8958093E3
:1037A00060000FBE90936000FFCF662309F45DC0F8
:1037B0008D3C41F40E94470A8195809327030E9423
:1037C000741808958E3C19F40E94470AF6CF8F3C76
:1037D00031F40E94470A819580932603F0CF803D03
:1037E00019F40E94470AF8CF893D29F40E94250A5E
:1037F00080932803E4CF8A3D21F40E94250A819515
:10380000F7CF8B3D31F40E94250A819580932903DF
:10381000D6CF8C3D19F40E94250AF8CF9FE2980F6D
:10382000983070F4815D990B21E030E001C0220FE7
:103830008A95EAF780912503822B80932503BFCFD9
:103840008D3D31F480911F03816080931F03B7CFBA
:103850008E3D21F480911F038260F7CF8F3D09F0E8
:10386000AECF80911F038460F0CF409126038D3C42
:1038700059F48091270387FF0DC01092270341114F
:103880000BC010921D0308C08E3C81F48091270369
:1038900018169CF3442381F080912803909129030A
:1038A000892B09F08CCF10921E0389CF8F3C49F4ED
:1038B00047FFF0CF10922603809127038111ECCFB0
:1038C000E0CF803D19F41416ACF3E4CF90912803B7
:1038D000893D29F41916F4F610922803DBCF8A3DAE
:1038E00019F497FFD7CFF8CF909129038B3D29F496
:1038F00097FFD0CF10922903CDCF8C3D19F4191624
:10390000CCF3C8CF9FE2980F983090F4815D990B6B
:1039100021E030E0B90102C0660F771F8A95E2F717
:10392000CB01809590912503892380932503B2CF05
:103930008D3D31F480911F038E7F80931F03AACFAA
:103940008E3D21F480911F038D7FF7CF8F3D09F0CD
:10395000A1CF80911F038B7FF0CF882399F19CEF3B
:10396000980F913A40F4682F82E092E00E94BF08DD
:103970000E94B50E089590E2980F983050F4877029
:1039800091E001C0990F8A95EAF7892F0E94A80C4F
:10399000EFCF9BE5980F933028F490E080E00E94F1
:1039A0004309089598E5980F9B3128F490E080E052
:1039B0000E941E09089593E3980F933118F460E074
:1039C0000E94D51B0895CF93C82F8823D1F18CEF87
:1039D0008C0F813AC0F580914A01882311F18091C2
:1039E000FC0487FF1EC0EC2FE695E695E695F0E017
:1039F000EE5FFD4F828190E04C2F477021E030E078
:103A000002C0220F331F4A95E2F782239323892BAA
:103A100089F06C2F82E092E00E94BF080E94B50EF0
:103A200009C0E4E0F2E08191C81799F382E0EA303E
:103A3000F807C9F76C2F82E092E00E94E9080E9423
:103A4000B50ECF91089580E28C0F883068F4C7706E
:103A500021E030E001C0220FCA95EAF7809195027B
:103A6000822B80939502EBCFEBE5EC0FE33040F433
:103A7000F0E0E857FE4F808190E00E944309E1CFDB
:103A8000E8E5EC0FEB3150F4F0E0EE0FFF1FE557E7
:103A9000FE4F808191810E941E09D3CF83E38C0F5A
:103AA000833178F661E08C2F0E94D51BCACF0F932B
:103AB0001F93CF93DF93C62FD42F022FFC01828157
:103AC0008823A9F060932F050E94681890932E0513
:103AD00080932D05C77081E001C0880FCA95EAF771
:103AE0000E94110FDF91CF911F910F910895809146
:103AF0002F05681335C080912D0590912E050E94E9
:103B00005918883C910560F510E21D0FCD17B9F0EA
:103B100080E28C0F883040F4C77081E001C0880FCC
:103B2000CA95EAF70E940A0F183048F481E09D2FE9
:103B3000977001C0880F9A95EAF70E94110F802FA5
:103B40000E94E31C802F0E94AD1C183058F6D770DD
:103B500081E001C0880FDA95EAF70E940A0FC2CF10
:103B6000C77081E001C0880FCA95EAF7F6CF0E94BE
:103B7000DC12882319F00E94681808950E9412131D
:103B8000CB0108956091E604669570E04BE050E04B
:103B900087E391E00E942F31892B19F481E0809313
:103BA00031030E94B71D90932B0380932A038091C9
:103BB000320384608093320308959091E60490FF6D
:103BC00031C0917081112FC092609093E604809172
:103BD0003203816080933203662351F06091E604E2
:103BE0007091E7048091E8049091E9040E946314C5
:103BF0006091E604669570E04BE050E087E391E069
:103C00000E942F31892BB1F00E946F0981E08093CF
:103C10002D0320E04091E9046091E8048091E704DD
:103C20000E94761408958B3210F09465CECF880FE1
:103C3000982BCBCF0E94C21DE9CF8091E6048695D8
:103C4000815009F48AE261E00E94DD1D08958091AF
:103C5000E60486958F5F8B3208F081E061E00E9478
:103C6000DD1D08959091E60490FF08C09695981781
:103C700028F0961718F40E94271E089561E00E940C
:103C8000DD1D0895A5E0B0E0E8E4FEE10C945630B7
:103C90007C01DC0113968D919C911497892B39F04E
:103CA0008C9111969C9189238F3F09F094C425969D
:103CB000ECE00C9472300E94D90C182F682F898187
:103CC0009A810E944D0D69817A81812F0E94650B36
:103CD0008C01F7018281F801E851FC47882309F43F
:103CE00067C490E290932F011093F5020093F402C1
:103CF0009801305221153043B8F49801332730939E
:103D0000F5022093F402D70111969C91119790939C
:103D1000F7029C919093F602E730F10508F03EC05F
:103D2000E75FFD4C0C94B5300C33110560F7D801FA
:103D3000A45BBE4F9C9190932F01E5CF26E241EE0C
:103D400061EEC7010E94571D80917302877009F4CC
:103D5000AECFD70112968C91882309F4A8CF809119
:103D6000FD0482FFA4CF82E00E949A0DA0CF27E23B
:103D700045EE65EEE6CF26E241EE60EEE2CF27E2C9
:103D800045EE64EEDECF26E241EE62EEDACF27E2C8
:103D900045EE66EED6CF28E241E0EBCF10922F053C
:103DA000980130572332310508F027C484E090E0B1
:103DB0000E9460319093FD048093FC04F801E1506F
:103DC000F047E232F10520F4E05FFD4C0C94B53091
:103DD0008091FC0481608093FC0495C08091FD0477
:103DE00088608093FD048FC08091FC048260F3CFD3
:103DF0008091FC048460EFCF8091FC048860EBCF5D
:103E00008091FD048160EDCF8091FD048260E9CF57
:103E10008091FC048061DFCF8091FC048062DBCF65
:103E20008091FC048064D7CF0E949B188091FC0491
:103E30008068D1CF8091FC048C60CDCF8091FD044F
:103E40008360CFCF8091FC048E7FC5CF8091FD042D
:103E5000877FC7CF8091FC048D7FBDCF8091FC040C
:103E60008B7FB9CF8091FC04877FB5CF8091FD0413
:103E70008E7FB7CF8091FD048D7FB3CF8091FC04FE
:103E80008F7EA9CF8091FC048F7DA5CF8091FC040B
:103E90008F7BA1CF0E949B188091FC048F779BCFD2
:103EA0008091FC04837F97CF8091FD048C7F99CF14
:103EB0008091FC0482FB992790F921E0922790FBE6
:103EC00082F990FB83F987CF8091FD04982F90951C
:103ED00091708E7F892B90FB81F983CF9091FC04A8
:103EE000892F8F7B96FF806476CF0E949B189091DC
:103EF000FC04892F97FB87F980586DCF61E08EE035
:103F000090E00E9466316091FC047091FD0484E0B1
:103F100090E00E9484310E949B1816CF60E0EFCFA2
:103F20009091FC04892F8F7E94FF806154CF9091F3
:103F3000FC04892F8E7F90FF81604DCF9091FD040E
:103F4000892F877F93FF88604CCF811185C0809136
:103F500095028272F801E052F847E531F10508F068
:103F60008BC0EE5CFD4C0C94B5308091E60480FF74
:103F700017C08E7F8093E6046091E6047091E70499
:103F80008091E8049091E9040E9463140E946F09F3
:103F9000809132038160809332030E94C40FD4CE9B
:103FA00081608093E60461E086950E94DD1DCCCEA1
:103FB0004DE15EE167E27EE10E946809C5CE47E21D
:103FC0005EE16DE17EE1F8CF45E355E16FE375E138
:103FD000F3CF4FE355E165E375E1EECF4BE155E1FA
:103FE00068E275E1E9CF48E255E16BE175E1E4CFC4
:103FF00041E055E16EE075E1DFCF4EE055E161E073
:1040000075E1DACF49E455E16BE575E1D5CF4BE5D4
:1040100055E169E475E1D0CF61E081E0C6CF65E0AC
:1040200082E00E94321E90CE68E086E0FACF6EE019
:1040300089E0F7CF64E18FE0F4CF67E185E1F1CF6C
:1040400061E088E1B2CF62E289E1EBCF61E083E237
:10405000ACCF6AE285E2E5CF0330ECE71E0709F456
:1040600078C008F05BC001152CE7120709F464C0A2
:1040700001301C4709F473C0F7018281008111816E
:10408000882309F47AC0C8010E94D90CD82E682F61
:10409000C8010E944D0DB8018D2D0E94650B0E9434
:1040A000840BB82E192F882ED7011296AC90129738
:1040B00015969C9092949FE099228091730287704C
:1040C000F1F0DA2CAA20E1F0812F807F803451F0CA
:1040D00080E28B0D883098F0911004C0812F807E93
:1040E000803269F08091FD0482FF09C082E00E9465
:1040F0009A0D809173028770DD24D3948111D12CA5
:10410000C12EC2948FE0C822BBE0BC1508F4A1C048
:10411000EC2DF0E0E95BFD4C0C94B5300B358CE7F1
:10412000180749F10C359CE71907D9F00A351C47E7
:1041300009F0A2CF81E01CC00E949B18BFEFE4E30E
:10414000FCE0B150E040F040E1F700C000000E9408
:10415000A00F6FEF7FEF90E080E00E9484310E941B
:10416000BF1B8091FD0482FB882780F991E089279D
:104170000E94861581CF80E0FBCFC8010E941A0DF6
:10418000D82E89CF012F0F70107F11F00295007F7C
:10419000AA20B9F0002369F080E28B0D883010F07E
:1041A000811009C080919502082B009395020E940E
:1041B000B50E8B2D4CC080919402082B0093940275
:1041C000F6CF8B2D0E94AD1C002309F442C080E283
:1041D0008B0D883010F0811004C0802F0E94A80C35
:1041E00006C00095809194020823009394020E94D7
:1041F000B50E2FC0012F0F70107F103211F00295F5
:10420000007F8820A1F0E1E08E1609F480C0AA208A
:1042100009F48AC0992009F480C0D70115968C91C1
:10422000159780FFC6CF8F7015968C9376C020911E
:10423000FD0422FD44C0AA20E1F1002339F0809161
:104240009502082B009395020E94B50E80E00E9413
:10425000E31CEC2DE850FF0B349710F40E9401137F
:10426000DD20B1F08091730280FD12C0D70112965B
:104270001C928595859585950E94B60DC7010E9473
:10428000421E809173028595859585950E94880DC3
:1042900085E0F701DE01119601900D928A95E1F714
:1042A00009811A81C8010E941A0DB8010E94650B8C
:1042B000FECC80E00E94AD1C002359F28ECFAA20D4
:1042C000A1F090919602802F892B911003C00E943B
:1042D000110FBFCFF1E09F12FACF22FFBACF98178C
:1042E00009F4B7CF80939602B4CF911006C00E9414
:1042F000A20C802F0E940A0FACCF21E0921609F485
:10430000A8CF802F0E940A0F0E94A20CA2CFAA2041
:1043100031F035E0391508F49CCF802FD8CF84E0F8
:10432000891508F496CFE5CF992019F3B9E38B12DC
:1043300009C0EFEFF7EE23E0E150F0402040E1F755
:1043400000C000008B2D0E94AD1C83CF812F86956D
:104350008695837069F0813009F07BCF8B2D912F8A
:104360009370A11002C080E090E00E941E0971CFFE
:104370008B2D912F9370A11002C080E090E00E94DD
:10438000430967CF6A2D8B2D0E94D51B62CF912FD9
:10439000937009F03FC0A1105CCF4B2D429546951C
:1043A0004770440F440F8B2D8F7090E0042E02C095
:1043B000880F991F0A94E2F730E020E0B4FE09C0AC
:1043C0002FE030E002C0220F331F4A95E2F720951C
:1043D0003095169516951370123099F078F4409137
:1043E000970250919802113039F0822B932B84233D
:1043F00095230E94C60D2DCF842B952B822B932BBA
:10440000F8CF822B932B209197023091980282272C
:104410009327EFCF9695AA2011F0912F91709923B1
:1044200009F417CF4B2D429546954770440F440F22
:104430008B2D8F7090E0042E02C0880F991F0A9474
:10444000E2F730E020E0B4FE09C02FE030E002C027
:10445000220F331F4A95E2F7209530951695169551
:104460001370123099F078F44091EB025091EC0205
:10447000113039F0822B932B842395230E94830DD6
:10448000E8CE842B952B822B932BF8CF822B932B6A
:104490002091EB023091EC0282279327EFCF1F701F
:1044A000AA2029F0812F0E94B60D8B2D10CF8B2DC5
:1044B0000E940A0F812F0E94880DCBCE8B2D32EFE8
:1044C000831699F1381570F090EF8916D1F0A1EFAD
:1044D0008A1691F0AA2009F45BC091106ACE812F50
:1044E0008F7127C0B3EF8B1639F1E4EF8E12F2CF44
:1044F0008091FD0482FD2EC0812F8F71AA20D9F2F8
:1045000018C0AA2069F0F4E0F91508F4A2CE1F71D2
:1045100081E090E002C0880F991F1A95E2F7B8CFAA
:1045200025E0291508F495CEF2CF812F8F71A110C7
:10453000C2CF0E94B60D8DCE90E080E0AA2009F493
:104540009DCF1F7181E090E002C0880F991F1A95DE
:10455000E2F794CFAA2089F01F71812F0E94B60D37
:104560008091FD0482FF07C038E0139FC001112431
:10457000836080937302812FDCCF81E00E949A0DCB
:1045800081E0891508F065CE82E00E949A0D61CE27
:10459000992059F0893309F0D5CE9FEFA7EEB3E00B
:1045A0009150A040B040E1F7CBCE812F8F7183CFE7
:1045B000E730F10508F4B4CB0631BCE71B0709F07E
:1045C000C6CC8091220269E2811165E382E092E02B
:1045D0000E94BF0826C085E0F701DE011196019018
:1045E0000D928A95E1F7F701228189819A81211143
:1045F00062CB0E941A0D182F66CB0631FCE71F070D
:1046000009F0A3CC809195028A7A91E009F490E0B8
:104610009093220269E2811165E382E092E00E94B8
:10462000E9080E94B50E90CB1F93CF93DF93809142
:104630004002807F09F04BC080913D02882309F43D
:1046400046C080917202C091410240913B0250915C
:104650003C0260913E0270913F02D42FD52316E0B8
:10466000C817A9F190E061157105A9F1DF3F99F133
:10467000189FF001199FF00D1124DF01AE5BBD4FB3
:1046800011962C911197251326C02C91241323C029
:1046900012962C91129721111EC013962D913C91C8
:1046A000261B370B283C3105B0F4809140028F70F7
:1046B000806180934002E95BFD4F80818F70806153
:1046C00080838BE392E00E94421E0E94CF0CDF9118
:1046D000CF911F91089501968770C2CFA1E1B0E0FC
:1046E000E4E7F3E20C9456308C0185E0F801DE013A
:1046F0001D9601900D928A95E1F7F801E2808BE317
:10470000882E82E0982E40913E0250913F02411542
:10471000510509F430C190913B0220913C02892F50
:1047200082238F3F09F427C1D080C180A380B48049
:10473000F0903D02B501641B750BFF2009F4E7C042
:1047400080914002382F307F683C710508F0ABC083
:10475000311178C0FE2C2C1114C09D1112C0E11033
:1047600010C08F70806180934002C4010E94421E7D
:1047700080914002F80185838F2D6196ECE00C94C6
:104780007230A114B104C9F18D2D8C218F3FA9F194
:1047900081E08E2580FF05C04E2D6C2D8D2D0E9451
:1047A000AF0CA114B10459F18D2D8C218F3F39F13B
:1047B00081E08E25F82FF170BF2E80FF39C04E2D7D
:1047C0006C2D8D2D0E94AF0CA82E811131C0DD867D
:1047D000CE868D859E850E940D0D292F22952F70E6
:1047E000243078F49F702230A8F09923B9F0F801B2
:1047F0009581907F99F4FA2CBFCF80E0CBCF80E0F9
:10480000D9CF2A5F2F70223068F0C8010E94421E63
:10481000AB2CF1CF992311F0882369F3805E8830A7
:1048200050F3F3CF803F38F3815F833070F7E3CFED
:10483000EE2009F4A1CF8091400281608093400274
:10484000F12C9ACF2C1105C09D1103C0EE2009F464
:1048500077C0C8010E94CB0D882309F1EE20F9F042
:1048600080914002803270F020913B0230913C02F6
:1048700038872F831986BB86AA868C87CE01079638
:104880000E94421E86E0F801ABE3B2E001900D9277
:104890008A95E1F70E941423FF24F3946DCFC80199
:1048A0000E94421EF9CF31110AC08BE392E00E94B0
:1048B000421E86E0F40111928A95E9F7C1CF2C11CE
:1048C0000EC09D110CC0E1100AC08583C8010E9472
:1048D000421E86E0F40111928A95E9F74DCFC80196
:1048E0000E94CB0D8823D9F2EE20C9F280914002BC
:1048F000803240F220913B0230913C023A8329837E
:104900001B82BD82AC828E83CE010196B9CF683CFA
:104910007105F8F6FE2CEE2011F22C111EC09D112F
:104920001CC08091400280FD0FC0982F907F61F0E5
:104930008583903F31F0982F907F905F8F70892B07
:104940008583C8010E94421E86E0F801ABE3B2E015
:1049500001900D928A95E1F70FCFC8010E94CB0D0F
:10496000811190CF80914002816080934002C80104
:104970000E94421E01CFEE2009F491CFC8010E948F
:10498000CB0DF82E882309F48ACF86E0F801ABE33B
:10499000B2E001900D928A95E1F780913B029091EF
:1049A0003C020E940D0D0E941423E6CEA7E1B0E068
:1049B000ECEDF4E20C945F304B8B5C8B6D8B7E8B5B
:1049C0008F8B6111109294021A8A198A85E0FE0178
:1049D0007396DE011D9601900D928A95E1F786E0AF
:1049E000FE013D96DE01179601900D928A95E1F742
:1049F000CE0107960E946E23811112C086E0FE014F
:104A00003796DE01119601900D928A95E1F78A851D
:104A10009B85892B29F088859F8189238F3F81F58C
:104A200016E08091720290914102891317C0679637
:104A3000E3E00C947B3096E0929FD001939FB00D01
:104A40001124AE5BBD4FFE01319601900D929A95F7
:104A5000E1F7809341020E94CF0CE2CF819FC00119
:104A600011248E5B9D4F0E946E23882301F3809159
:104A7000720290E001968770992780937202D1CFDD
:104A80002091410230E0C901019687709927409139
:104A900072024817190679F60E949B18109241027B
:104AA0001092720286E0EBE3F2E0DF011D928A953C
:104AB000E9F7B6CFA0E1B0E0E0E6F5E20C945530BE
:104AC0008E01075F1F4F88E0D8011D928A95E9F794
:104AD00083ECC82E81E0D82EF12CE12CAA24A394DB
:104AE000B12C2DEC822E21E0922EF60181916F01E6
:104AF0008F3F09F442C0F894E82FE295EF70F0E0A0
:104B000021A18F70A50102C0440F551F8A95E2F7BD
:104B1000CA01922F982B91A392A18095892382A3F9
:104B2000789400C0E7ECF1E0712C31E021912F3F47
:104B300009F46BC0A22FA295AF70B0E090968C9153
:104B400090E02F7002C0959587952A95E2F780FD39
:104B50005CC0832F782A330F8E169F0639F7F60133
:104B6000319780818F3F11F00E94690A50EA5A956F
:104B7000F1F7F801EE0DFF1D70828FEFE81AF80AC9
:104B8000A4E0EA16F10409F0B0CF48E050E0B80123
:104B90008CEC92E00E943C31009741F028E0F80153
:104BA000ACECB2E001900D922A95E1F70091D502AC
:104BB000892B69F181E080939D020E94681890938F
:104BC0009C0280939B0280919B0290919C020E9488
:104BD0005918059700F110E009521D4F44E050E0CC
:104BE0006CEC72E0C8010E943C31F12C892B51F031
:104BF00084E0ECECF2E0D80101900D928A95E1F7A7
:104C0000FF24F39410929D0207C080E0A3CF80910F
:104C10009D028111D8CFF12C0E94DC12E82EE09188
:104C2000D502882309F47DC019821A821B821C8256
:104C30000E2F10E009521D4F8091C7028A30D8F51F
:104C400044E556E1BE016F5F7F4FC8010E94A91283
:104C5000882309F455C04DE955E1BE016F5F7F4FD0
:104C6000C8010E94A912882309F44AC043EF55E104
:104C7000BE016F5F7F4FC8010E94A912882309F40B
:104C80003FC01092C7028091D40290E044E050E00F
:104C9000BE016F5F7F4F89529D4F0E943C3121E0E2
:104CA0002093A402892BF1F4E12C8E2D8F2960969C
:104CB000EDE00C94713080919E0290919F020E94D1
:104CC0005918843F914008F0BBCF8091A4028823FB
:104CD00059F384E0FE013196DF011D928A95E9F7D0
:104CE0001092A402E091D402F0E0E952FD4F8981D4
:104CF0009A81AB81BC8180839183A283B383D5CF1A
:104D00008091C7028F3F31F08F5F8093C7028A3056
:104D100008F4B9CF0E94681890939F0280939E0276
:104D2000D4CFF0E0E952FD4F84E0A3EBB2E0019074
:104D30000D928A95E1F783EB92E00E943F07809302
:104D4000B2028090B7029090B802A090B902B090E1
:104D5000BA028091A0029091A102A091A202B0910A
:104D6000A30288169906AA06BB06D1F08092A0027B
:104D70009092A102A092A202B092A3020E94DC1221
:104D800081110EC00E94B308861A970AA80AB90AB0
:104D90008092C8029092C902A092CA02B092CB023D
:104DA00088E0EBEBF2E0DE01119601900D928A951E
:104DB000E1F72981822F8695DA80CB80BC800F8134
:104DC00018851092C202112309F46FCF10FF0AC098
:104DD0009091E60420FF1AC091609093E60460E091
:104DE0000E94DD1D11FF06C020E04B2D6C2D8D2D86
:104DF0000E94761412FF04C00023A9F00E94C21D75
:104E000013FF53CF81E080932D034FCF9E7F90936C
:104E1000E6040E946F09809132038160809332031F
:104E20000E94C40FDFCF0E946F09EACFA5E0B0E077
:104E3000ECE1F7E20C945E300E9468188C018091DE
:104E4000990290919A0280179107A1F08FEF8983C0
:104E50008A831B820E9468188160782F9D838C83CF
:104E600049815A816B818D810E94D62410939A02C8
:104E7000009399022596E4E00C947A301F921FB6B5
:104E80001F9211248F939F93AF93BF938091F70448
:104E9000811113C08091F8049091F904A091FA0453
:104EA000B091FB044196A11DB11D8093F80490932D
:104EB000F904A093FA04B093FB04BF91AF919F91C2
:104EC0008F911F901FBE1F901895CDB7DEB72F97FB
:104ED0000FB6F894DEBF0FBECDBF85B7806885BF23
:104EE00085B7806885BF84B7877F84BF0FB6F89485
:104EF000A8958091600088618093600010926000A6
:104F00000FBE80E890E00FB6F89480936100909314
:104F100061000FBE87E69AE0909301028093000241
:104F20000E9456070E94F7078091E20084608093F8
:104F3000E2007894809123058823A1F01091E90084
:104F40001F709091EC00892F817090FD80E8182BE4
:104F50001092E9008091E80083FD0E94CA181F703A
:104F60001093E90082E084BD93E095BD9AEF97BD70
:104F700080936E001092C8021092C9021092CA0269
:104F80001092CB020E94DC128093240180912401B4
:104F9000882309F478C0109245018BE18093460183
:104FA0000E94DC1281110E94DA2E809124018091EE
:104FB000240194E0811190E09093D50284E0891B54
:104FC0008093D40284E90E94690A86E60E94690AF5
:104FD00087E90E94690A86EC0E94690A07EC11E0E1
:104FE000FDECEF2EF1E0FF2ED8018D918D018F3F6A
:104FF00011F00E94690AE016F106B1F788E0E7EDCA
:10500000F2E0DF01282F1D922A95E9F7ECECF2E09F
:10501000DF011D928A95E9F790E080E00E946031FF
:10502000873E9E4F11F00E94FD1682E090E00E94A4
:1050300052318093DF0284E090E00E9460319093CF
:10504000FD048093FC040E945A25EFEFF6E721E06F
:10505000E150F0402040E1F700C000000E945A25D6
:105060000E94DC12E4E08111E0E0F0E0E952FD4F43
:10507000808181FF0CC06FEF7FEF90E080E00E94A5
:1050800084310E94A00F8BE18093450187CF83E09C
:1050900090E00E94523190E00E94C60D0E94DC1206
:1050A0008111F3C082E08093180380E88093350576
:1050B0000E94942D6DE070E08FE392E00E942C132B
:1050C000892BE9F58091180363E070E081FDDFC072
:1050D0008CE392E00E942C13892B89F56DE070E03F
:1050E0008CE292E00E942C13892B49F50E94B308B0
:1050F000605A75418F4F9F4F6093EB047093EC049F
:105100008093ED049093EE04E8E3F5E080E092E014
:10511000DF019C011D9221503040E1F7F0933F07E1
:10512000E0933E078FEF9FEF90933705809336050E
:1051300081E08093F0048093EF0410921903809132
:10514000D60281113BC090E080E00E946031873E32
:105150009E4F21F00E94FD160E946D1588E090E0A0
:105160000E945A316093E6047093E7048093E80448
:105170009093E904809132038360809332036E7FC1
:1051800071F40E946D1588E090E00E945A3160939E
:10519000E6047093E7048093E8049093E9040E9486
:1051A00076090E946F098091E60480FF04C060E0E8
:1051B00086950E94DD1D81E08093D6020E94DC125C
:1051C000811102C00E94DD2E85E291E09093F404EB
:1051D0008093F30470E4672EEAE08E2E912CA12CCC
:1051E000B12C8091230500E112E1853009F48AC0D9
:1051F0000E945A2500EE12E067EDE62E62E0F62EE0
:10520000D701F80191918D9122E0E83EF20709F46F
:1052100083C09817B9F30E94DC12382ED12CD70125
:10522000CD907D01F80141908F014C1429F1712C32
:10523000552453944C24842D8521B1F03320A1F0C2
:105240007F82D88691E08C2D852109F490E09987A2
:105250000E9468188160782F9B878A874F815885C4
:1052600069858B850E94D6247394550CF6E07F12D5
:10527000E2CFF8013197C082D39428E0D212CFCF89
:105280000E94B308772473944CC080E00CCF89E36C
:1052900092E020CF80912305843029F10E9456139B
:1052A0001092F70488E190E00FB6F894A8958093E7
:1052B00060000FBE6092600083B7817F846083BF0F
:1052C00083B7816083BF7894889583B78E7F83BFCF
:1052D0000FB6F894A8958091600088618093600073
:1052E000109260000FBE80912205882359F00E9421
:1052F0005A25E7EDF2E081918111F6C392E0EF3D8E
:10530000F907C9F780912305853009F4C3CF0E94BE
:105310009B180E9401136CCF98137DCF0E94162713
:10532000712C0E94DC1280913103882309F464C03F
:1053300080913003E091E604E695E81BE0932C03AE
:10534000823009F0F1C1F0E0E35AFD4FE4910E2FF5
:1053500010E055E9E52E52E1F52E80912D038823CA
:1053600061F010922D030E94B71D90932B03809340
:105370002A0310922F0310922E030E94B71DE09172
:105380002A03F0912B039C012E1B3F0B2F3F3F471D
:1053900098F52091EA022223B1F01092EA022091BE
:1053A000E8023091E902821B930B8F3F9F4758F42C
:1053B000205D3A483093E9022093E802809132035D
:1053C000886080933203C0902E03D0902F03E00FAB
:1053D000F11FF0932B03E0932A038AE293E0F70195
:1053E000099580912E0390912F03892B29F4CD28C4
:1053F00019F081E08093EA028091F004882309F497
:10540000B3C080911A0390911B030E945918C29750
:1054100008F48AC00E94681890931B0380931A03B3
:1054200088E395E090933F0780933E070E94DC124B
:10543000882309F42FC28CE792E00E94750E209118
:10544000EB023091EC02832F9927009709F4D8C121
:105450009C0188E0A90164E0569547956A95E1F7BB
:105460004115510511F08C5F9A01A9015695479598
:10547000569547954115510511F08E5F9A01369565
:105480002795232B09F08F5F813009F4C3C188234E
:1054900009F4B8C1823009F4C0C1833009F4C0C135
:1054A0008091F7020E94D806FC01019620812032EB
:1054B000D9F3CF010E941B0F8AE892E00E94750E7B
:1054C0008091F6020E94D806FC01019620812032CC
:1054D000D9F3CF010E941B0F86E892E00E94750E5F
:1054E0002090F4023090F50280912D0190912E01D0
:1054F0002816390609F097C18091F302803209F02D
:1055000092C12DEE32E0C9012F5F3F4FFC01408177
:105510004032C9F30E941B0F84E892E00E94750E8E
:1055200080912F010E94F50D8091360590913705ED
:10553000892B09F0ECC18091EF048823A9F00E9427
:10554000B3080091EB041091EC042091ED0430912C
:10555000EE04601B710B820B930B6F3F7F4F8F4FDD
:105560009F4710F40E94561371100E94711386E039
:10557000E4E2F3E0DE01119601900D928A95E1F7E5
:1055800010922603109227031092280310922903E9
:105590008B819C81892B09F44AC0809122039091D0
:1055A00023030E9459189C0190911D03992309F42B
:1055B000B6C225313105D8F19F3F19F09F5F909316
:1055C0001D031B81112359F00E94470A9FEF1116FA
:1055D0000CF491E0899F802D1124809326031C8177
:1055E000112359F00E94470A9FEF11160CF491E025
:1055F000899F802D11248093270330912603332324
:10560000B1F020912703222391F045EB3403C00130
:105610001124992309F458C29093260345EB2403DF
:1056200090011124332309F453C2309327038D8151
:105630009E81892B09F44AC0809120039091210317
:105640000E9459189C0190911E03992309F462C28B
:1056500021353105D8F19F3F19F09F5F90931E03CC
:105660001D81112359F00E94250A9FEF11160CF499
:1056700091E0899F802D1124809328031E8111239E
:1056800059F00E94250A9FEF11160CF491E0899FB2
:10569000802D112480932903309128033323B1F006
:1056A00020912903222391F045EB3403C0011124FA
:1056B000992309F411C29093280345EB2403900128
:1056C0001124332309F40CC23093290346E050E03F
:1056D000BE016F5F7F4F84E293E00E943C31892BD3
:1056E00061F48091260390912703892B90912803E0
:1056F000892B90912903892B11F00E94741886E060
:10570000FE013196A4E2B3E001900D928A95E1F793
:105710000E94011390911C03891709F462CD8093B4
:105720001C030E94B3085DCD863059F4F0E0E65AC0
:10573000FD4FE4910E2F10E045E8E42E42E1F42EF7
:105740000CCE893061F4E695F0E0E95AFD4FE49122
:105750000E2F10E03EEDE32E31E1F32EFECD8F3023
:1057600061F4E695F0E0EC5AFD4FE4910E2F10E065
:1057700023E5E22E21E1F22EF0CD853159F4F0E05F
:10578000EF5AFD4FE4910E2F10E09EECE92E90E1D0
:10579000F92EE3CD08E210E0ACE4EA2EA0E1FA2E07
:1057A000883109F4DACD833249F4EFE4F2E005916F
:1057B000149184E3E82E82E1F82ECFCD04EF11E0BE
:1057C000FFE0EF2EF0E1FF2E843209F4C6CD8532E2
:1057D00081F48E2F63E00E948730E92FF0E0E45BD4
:1057E000FD4FE4910E2F10E0B9E9EB2EB3E1FB2E53
:1057F000B4CD00ED17E0EEE6EE2EE9E0FE2EADCDE5
:1058000080E028CE84E792E00E94750E81E00E943D
:10581000830E46CE8EE692E0F7CF88E692E0F4CF94
:1058200081E692E0F1CF30922E0120922D0180E2AC
:105830008093F302512C412C1092F202BDEECB2E3C
:10584000B2E0DB2E18EEE12E12E0F12E8601C2014D
:10585000B101A50194010E94CC31605D603319F45F
:10586000C016D10631F0211431044104510409F469
:1058700060E2D80114966C93C201B101A5019401B4
:105880000E94CC3119012A0101501109E016F106DC
:10589000F1F637CE80913E0790913F0788539540AF
:1058A0009C013E5F21303240A0F020E032E0281B16
:1058B000390B4091360550913705ECE8F2E0280F9E
:1058C000391F8217930740F05093370540933605F0
:1058D0002BCE20E032E0EDCF6491DC01A85CBA4F22
:1058E0007C91671789F06C93BC01A5E0769567956C
:1058F000AA95E1F7A1E0B0E002C0AA0FBB1F6A952C
:10590000E2F7BD014A2B572B01963196DACF8091F1
:10591000F004882309F40FCE8091190381110BCE76
:105920000E947113209136053091370521153105FC
:1059300009F401CE80E0482E512C22242394312CEE
:10594000082E02C0220C331C0A94E2F7A101422364
:105950005323452B11F48F5FEECF9091180390FFE6
:1059600099C0880F880F880F8093320110923501FB
:10597000895F8093330183E08093360124E630E031
:1059800047E050E060E371E088E70E94342E892B05
:1059900009F0D1CD95E0440C551C9A95E1F7809122
:1059A000180380FF89C0E8EFF2E080E2DF011D927A
:1059B0008A95E9F7E1EDF1E0FF87EE874DEC51E0E4
:1059C00087E0E82EAE85BF856D91BF87AE87FA016F
:1059D0008191AF01840D952D911D9C01285C3A4F5A
:1059E0003D872C87E62FF0E0E850FD4F90E080E007
:1059F000CE2CC81AFF24F394082E01C0FF0C0A9481
:105A0000EAF76C857D8500E0DB011D91BD011F215A
:105A10002C2D201B2770D22E022E000C330BB12F01
:105A200001C0BB0FDA94EAF7DB2E319521953109DD
:105A30002770332701C016952A95EAF7D12A1081DD
:105A4000D12AD0820F5F0830F9F60196319688305E
:105A5000910571F6EE85FF85E55DF14009F0B2CF65
:105A600004E610E020E230E048EF52E060E488E72E
:105A70000E94552E892B09F05ECD209430948091A0
:105A80003605909137052822392230923705209229
:105A9000360551CD8295880F807680933201920130
:105AA000369527953695279520933501815E80930D
:105AB00033011092360162CFA201485C5A4F04E6CE
:105AC00010E020E230E0D2CF81E080932603A6CD23
:105AD00081E080932703ABCD81E080932803EDCD57
